:100000000C948D010C94D4010C94D4010C94D40163
:100010000C94D4010C94D4010C94D4010C94D4010C
:100020000C94D4010C94D4010C94A31D0C94771E51
:100030000C94CA140C94D4010C94D4010C94D401E3
:100040000C94D4010C94D4010C94D4010C94D401DC
:100050000C94D4010C9415150C94D4010C94D40177
:100060000C94D4010C94D4010C94D4010C94D401BC
:100070000C94D4010C94D4010C94D4010C94D401AC
:100080000C94D4010C94D4010C94D4010C94D4019C
:100090000C94D4010C94D4010C94D4010C94D4018C
:1000A0000C94D4010C94D4010C94D40129001400B4
:1000B0001A000800150017001C0018000C001200A0
:1000C00013002A0000002B0004001600070009009E
:1000D0000A000B000D000E000F0028000000E100D8
:1000E0001D001B000600190005001100100036005D
:1000F00037000000000000000000000000002C009D
:1001000001512C0000000000000000000000000071
:1001100000000000000000000000000000000000DF
:100120000000000029001E001F0020002100220006
:10013000230024002500260027002A0000002B00B1
:100140001E021F0220022102220223022402250293
:10015000350228000000E100260227022D022E02AF
:100160002F0230023102005CE500000000000000B8
:100170000000000000002C0001002C000000000026
:10018000000000000000000000000000000000006F
:100190000000000000000000000000000E035400FA
:1001A000610063006F003100320000001E03540044
:1001B000610063006F0020004B0065007900620061
:1001C0006F00610072006400730000000403090402
:1001D00009023B00020100A0FA090400000103012A
:1001E00001000921110100012240000705810308D7
:1001F000000A0904010001030000000921110100A7
:100200000122BC000705820320000A120110010030
:10021000000008EDFE606001000102000105010917
:1002200002A10185020901A100050919012905158D
:100230000025019505750181029501750381010570
:1002400001093009311581257F950275088106095C
:10025000381581257F950175088106050C0A38023D
:100260001581257F950175088106C0C005010980AB
:10027000A101850319012AB700150126B7009501D0
:1002800075108100C0050C0901A101850419012A1E
:10029000A002150126A002950175108100C005017C
:1002A0000906A1018505050719E029E715002501C3
:1002B0009508750181020507190029EF1500250130
:1002C00095F075018102050819012905950575014B
:1002D0009102950175039101C005010906A101056F
:1002E0000719E029E7150025019508750181029598
:1002F00001750881010507190029FF150026FF0077
:1003000095067508810005081901290595057501EF
:100310009102950175039101C00011241FBECFEF1A
:10032000DAE0DEBFCDBF04B603FE27C080918602AF
:1003300090918702A0918802B09189028730904BFA
:10034000A740B04BD1F4109286021092870210920F
:1003500088021092890214BE84B7877F84BF0FB6CB
:10036000F894A89580916000886180936000109255
:1003700060000FBEE0E0F8E3099511E0A0E0B1E015
:10038000E6E8F1E402C005900D92A838B107D9F76C
:1003900022E0A8E8B1E001C01D92A638B207E1F75B
:1003A0000E94E51A0C9499200C94000081E00895B5
:1003B00081E008950C94D80108950C94DC011F93FA
:1003C000CF93DF9300D000D00F92CDB7DEB7498333
:1003D0005A836B833091A00189819A8131111DC0AC
:1003E0006623B9F02223A9F00E94C011182F682FAC
:1003F00089819A810E946C1169817A81812F0F9085
:100400000F900F900F900F90DF91CF911F910C9450
:100410008F020E949811182FEFCF0E94C01169819E
:100420007A81EDCFFC01262F408151816281738159
:1004300084810C94DF01CF93DF93EC0160E00E9494
:100440001202BE01DF91CF910C94DD010E940413D2
:10045000811102C00E94B2130C949B040C949E0460
:1004600008950E94D30C0E9430022FEF84E39CE099
:10047000215080409040E1F700C000000C943915F5
:100480000F931F93CF93DF93EC0161E00E94120260
:100490008C01BE010E94DA01882329F1BE01C80146
:1004A0000E9456068823F9F0BE01C8010E94A806E2
:1004B0008823C9F0BE01C8010E94CB07882399F0A8
:1004C0008A81882339F001158CE5180751F00F3D1A
:1004D0001C4579F0CE01DF91CF911F910F910C94C3
:1004E000D6010E94310280E0DF91CF911F910F91E0
:1004F00008950E94B213F7CF08950C947C0281E016
:1005000008950C947F02CF93C82F0E947D028C2FF8
:10051000CF910C94810290E080E008950895972F88
:1005200070E02CE0929F600D711D1124FB019CE393
:10053000899FE00DF11D1124EE0FFF1FE455FF4FC1
:10054000859194910895FC01EE0FFF1FE456FE4F34
:10055000859194910895CF93DF930E948F020E941A
:10056000C003EC01811520E5920708F042C0811517
:1005700030E4930708F0BDC0883E910528F5803E21
:10058000910508F09DC0883A910588F4853A910557
:1005900008F08FC08130910509F492C0009709F4EA
:1005A0008FC0049708F08CC0D0E0C0E089C08F3BBA
:1005B000910508F489C0805C9109C03CD105A0F385
:1005C0000E94A302EC017CC08115904250F4C11539
:1005D00081E0D80708F074C0C03FD10528F3D0658A
:1005E0006FC0C11590E3D90708F079C0CE019F70A4
:1005F000E7CF811525E5920758F5811534E5930776
:1006000008F0A6C0811542E5940750F4C11581E5B4
:10061000D80708F471C0DC2FCC27C16FD06A50C056
:10062000982F969596959E0123703327C115D34533
:1006300008F07FC0C1E0D0E002C0CC0FDD1F2A95DA
:10064000E2F720E2929FC0011124C82BD92B6FC082
:10065000C11589E5D807A8F4C11598E5D90708F0B0
:100660007CC0C11526E5D20708F09ECF8C2F0E94D2
:100670005704C82FD0E0DC2FCC27CC27DF71D06205
:100680001FC0C1153AE5D30708F46CC0CE019056DF
:100690008115904208F088CF8D2F8F710E945704EA
:1006A00090E0982F882788279F719C012C2BE901C7
:1006B000E6CFC55AD0E0CD5BDE4FC881D0E0D06434
:1006C000CE01DF91CF910895C85AD0E0CC0FDD1F45
:1006D000CB5EDE4F0990D881C02DD464F1CFCE011E
:1006E0009927D3FF03C0EC01D86CEACFEC01D06CA2
:1006F000E7CFDF70D06AE4CFCE01E4E0969587952E
:10070000EA95E1F783702C2F26952695237090E2C9
:10071000299F90011124382B8C2F8370C1E0D0E0E9
:1007200002C0CC0FDD1F8A95E2F7C22BD32BDC6809
:10073000C7CFC1E0D0E002C0CC0FDD1F2A95E2F7A1
:1007400030E2939FC0011124C82BD92BDA68B8CFAF
:10075000D82FCC27C46FD06AB3CFDC2FCC27C06F83
:10076000D06AAECF8C2F8F700E94570434E0D6959C
:10077000C7953A95E1F7CF709C2FEC01D069A0CFD7
:1007800082389105B1F1B0F48133910509F475C057
:1007900048F48932910509F469C08A32910509F457
:1007A00073C008958533910509F459C089339105C3
:1007B00001F10895833E9105A9F138F4803E910539
:1007C000F9F0823E910549F10895863E9105A9F11F
:1007D000873E9105C9F1843E910519F52091780273
:1007E00021FF1FC08091770284FD14C087EE90E046
:1007F0000895209177022370A1F080EE90E0089593
:100800002091770220FD47C03091780230FF09C067
:1008100024FF44C090E080E004C02091770222FDD4
:10082000F7CF08952091770222FD3BC030917802E6
:1008300030FDE3CF24FFF5CFEDCF2091770223FFEA
:10084000F0CF24FDE7CFD2CF2091770223FD2CC03B
:100850003091780231FFEECF84EE90E00895209140
:10086000770225FFDECF89E290E00895209177029C
:1008700025FFD7CF85E390E008952091770226FFEA
:10088000D0CF8AE290E008952091770226FFC9CF69
:1008900081E390E0089589E390E0089583EE90E08D
:1008A000089582EE90E0089586EE90E0089590918C
:1008B000770292FF06C0282F28712830F9F4877F2D
:1008C000846093FF06C0282F28712831F1F4877EB9
:1008D00084612091780220FF06C0382F38713830AB
:1008E000D9F4877F816021FF06C0282F2871283125
:1008F000D1F4877E816194FD877E0895282F24712D
:100900002430F9F68B7F8860DCCF282F24712431C6
:1009100001F78B7E8861DDCF382F3171313019F7C7
:100920008E7F8860E0CF282F2171213121F78E7EC4
:100930008861E1CF08950C949A0408950C949D0465
:10094000E82FF0E0EE0FFF1FE759FD4F8081918106
:100950000895089580EA8A95F1F70895F894E82FAC
:10096000E295EF70F0E031A1282F2F7081E090E048
:1009700001C0880F2A95EAF7982F9095932391A3A9
:1009800092A1892B82A3789408950F931F93CF93FC
:10099000DF9383E90E94AE0481E30E94AE0487EFF7
:1009A0000E94AE0486EF0E94AE0480E00E94AE0476
:1009B000C6E4D1E002E511E089910E94AE040C1773
:1009C0001D07D1F71092600210925F0210926A0226
:1009D00010926902109262021092610210926C02EF
:1009E00010926B02109264021092630210926E02D7
:1009F00010926D02109266021092650210927002BF
:100A000010926F02109268021092670210927202A6
:100A10001092710285E00E949105DF91CF911F91A4
:100A20000F910C942602AF92BF92DF92EF92FF9249
:100A30000F931F93CF93DF93C2E5D1E00FE512E050
:100A4000D12CEE24E394F12C8991F894E82FE295CF
:100A5000EF70F0E021A18F70A70102C0440F551F75
:100A60008A95E2F7CA01922F982B91A392A18095C3
:100A7000892382A378940E94AA04E6E4F1E030E09E
:100A800020E0B12CA12C4191A42FA295AF70B0E031
:100A900090968C9190E04F7002C0959587954A95FD
:100AA000E2F780FD39C0C701022E02C0880F991FEE
:100AB0000A94E2F7A82AB92A2F5F3F4F2C3031055C
:100AC00011F7FE01319780810E94AE04F801808108
:100AD0009181A816B90619F1B182A08281E0D82AC5
:100AE0000E5F1F4FF1E0C735DF0709F0ADCF2D2DA9
:100AF00045E069E672E08FE592E00E9492050E946F
:100B00002E028D2DDF91CF911F910F91FF90EF90CD
:100B1000DF90BF90AF90089590E080E0CBCF80E071
:100B2000DECF0895FF920F931F93CF93DF93F82E9C
:100B3000092F162FD72FC42F222349F081E080934D
:100B40008A010E94FA149093890180938801809110
:100B50008A018823A1F080918801909189010E94E7
:100B60000615069760F0EF2DF02FA12FBD2F90E016
:100B700080E0D0E08C179D0744F010928A01DF914D
:100B8000CF911F910F91FF900895219131912D9355
:100B90003D930196EFCFAF92BF92CF92DF92EF924B
:100BA000FF920F931F93CF93DF937C015B01C42FC0
:100BB000D22FFC0182818823F9F040938D010E949D
:100BC000FA1490938C0180938B0180E28C0F883013
:100BD00008F061C0C77081E001C0880FCA95EAF7CC
:100BE000DF91CF911F910F91FF90EF90DF90CF9009
:100BF000BF90AF900C94570A10918D01141340C010
:100C000080918B0190918C010E9406156C01B701B7
:100C1000C5010E94490FC816D90690F5C0E2CD0F54
:100C20001D17B9F080E2810F883040F4177081E021
:100C300001C0880F1A95EAF70E945E0AC83048F48E
:100C400081E09D2F977001C0880F9A95EAF70E9466
:100C5000570A802F0E94440AC830E8F4D77081E018
:100C600001C0880FDA95EAF7DF91CF911F910F91BC
:100C7000FF90EF90DF90CF90BF90AF900C945E0A02
:100C800080E28C0F883038F4C77081E001C0880F93
:100C9000CA95EAF7E9CFDF91CF911F910F91FF90AD
:100CA000EF90DF90CF90BF90AF9008950F939C018D
:100CB000CB01243F4CE5340759F1A8F4293DFCE56C
:100CC0003F0701F12A3D4CE53407D1F1283D3C4571
:100CD00091F406E221EE41EE68ED7CE50E94CB0541
:100CE00080E00F910895263FFCE53F07E9F0B0F062
:100CF000273F3C45F9F0FC018281882339F11092AD
:100D00008D01EFCF07E225EE45EE69ED7CE5E6CFFC
:100D100006E221EE40EE64EF7CE5E0CF07E225EE4F
:100D200044EE65EF7CE5DACF06E221EE42EE66EFB7
:100D30007CE5D4CF07E225EE46EE67EF7CE5CECF2B
:100D400008E221E045EE6AED7CE5C8CF81E0C9CF3D
:100D5000CF93DF93EC01FB018281882309F419C151
:100D6000C230FCE5DF07C0F1C6319CE5D90730F0A1
:100D70009E012B5F3C452930310570F50E942113FF
:100D80009093780280937702C031ECE5DE0709F496
:100D9000CFC008F05BC0C8308CE5D80709F4B6C0F6
:100DA00088F5C430ECE5DE0709F4A8C0C0F4C23011
:100DB0008CE5D80709F49CC0809177028260C3302B
:100DC000DC4509F498C080917702909178020E94E6
:100DD0002F130E94D30C80E0DF91CF910895809172
:100DE00077028061C630ECE5DE0709F484C08091AB
:100DF00077028860C730DC4508F47DC080917702B7
:100E0000806279C0CC308CE5D80709F489C070F4D1
:100E1000809177028C60CA30ECE5DE0709F46BC084
:100E200008F478C0809177028E7F65C0CE308CE563
:100E3000D80709F479C0809177028B7FCF30DC45E9
:100E400008F459C0809177028F7E55C0CC3FECE505
:100E5000DE0709F457C030F5C3318CE5D80709F433
:100E60006FC078F4C131ECE5DE0709F465C0C2312A
:100E7000DC4509F0A8CF0E94D30C809177028F77D0
:100E80003AC0C5318CE5D80709F462C008F476C0D1
:100E9000809178028160CB3FDC4509F094CF80934C
:100EA000780291CFC115FDE5DF0709F44DC088F444
:100EB000809178028D7FCE3F9CE5D90781F38091A8
:100EC00078028E7FCF3FDC4550F3809178028360BB
:100ED000E6CFC230FDE5DF0709F459C008F444C08D
:100EE00080E0C330DD4509F06ECF0E94B4136BCFB4
:100EF0008091770281608093770265CF809177023D
:100F00008460F9CF809178028260C9CF80917702A6
:100F10008064F1CF0E94D30C809177028068EBCF80
:100F2000809177028D7FE7CF80917702877FE3CF33
:100F3000809177028F7DDFCF809177028F7BDBCF2F
:100F400080917702837FD7CF809178028C7FA7CF63
:100F50008091770282FB992790F921E0922790FBFC
:100F600082F990FB83F9C7CF80917802982F9095F2
:100F700091708E7F892B90FB81F991CF0E94D30CC9
:100F800090917702892F97FB87F98058B4CF81E041
:100F9000ACCF81E021CFCF93DF93EB0186319C452D
:100FA00011F50E9455129A81992399F08A7A91E05D
:100FB00009F490E090938E01811109C089E20E94AA
:100FC00030120E94A11280E0DF91CF91089585E355
:100FD000F6CF80918E01811104C089E20E94371200
:100FE000F0CF85E3FBCF81E0EFCF90939401809326
:100FF00093010895E0919301F0919401309721F0CD
:101000000190F081E02D099480E00895E091930132
:10101000F0919401309799F020911401222359F016
:101020002091770227FF07C0DC012C9111962C93A9
:10103000119725E02C930280F381E02D0994089507
:10104000E0919301F0919401309739F022E0DC01B6
:101050002C930480F581E02D09940895209191014D
:10106000309192012817390771F090939201809383
:101070009101E0919301F0919401309721F0068065
:10108000F781E02D0994089520918F01309190010E
:101090002817390771F09093900180938F01E091A8
:1010A0009301F0919401309721F00084F185E02DB7
:1010B0000994089585B7806885BF85B7806885BF26
:1010C0000895089508950C94610808950C94650896
:1010D0000E945A080E9462080C94630881E00895F7
:1010E0000C946E08089508950E94F1140E94C5049E
:1010F0000E94A8150C9466089F92AF92BF92CF925F
:10110000DF92EF92FF920F931F93CF93DF93CDB7B0
:10111000DEB72A970FB6F894DEBF0FBECDBF0E9490
:1011200072080E9473080E9413050E9470088823A9
:1011300009F470C056E9A52E51E0B52E10E000E08C
:10114000902E802F0E94A0046C01F501E190F19097
:101150005F01E816F90609F457C080912E0281FD5F
:101160000E94A90497012C253D2580E0EE24E394FC
:10117000F12CA9014E215F21452B09F43FC08E833C
:101180009F82CE20DF2081E0CD2809F480E088878F
:101190000E94FA148160782F9A8789874E815F8137
:1011A00068858A850E942D09000F111FF801EA56F3
:1011B000FE4F80819181E826F926F182E0820E942B
:1011C00056180E94FA07909195018917A1F10E9483
:1011D000FA07809395012A960FB6F894DEBF0FBEEA
:1011E000CDBFDF91CF911F910F91FF90EF90DF90D6
:1011F000CF90BF90AF909F900C9483028F5FEE0CC6
:10120000FF1C8C3009F0B5CF0F5F1F4F0530110563
:1012100009F096CF8FEF89838A831B820E94FA148C
:101220008160782F9D838C8349815A816B818D8168
:101230000E942D09C4CF2A960FB6F894DEBF0FBEC8
:10124000CDBFDF91CF911F910F91FF90EF90DF9075
:10125000CF90BF90AF909F900895CF93DF93CDB77D
:10126000DEB72B970FB6F894DEBF0FBECDBF4F830E
:10127000588769877A878B871E821D8285E0FE01E9
:101280003796DE01119601900D928A95E1F749811A
:101290005A816B817C818D819E812B960FB6F8944B
:1012A000DEBF0FBECDBFDF91CF910C944C0FFC0180
:1012B000808191810C940212CF93C82F882309F466
:1012C0008BC08238C1F40E94FA0781FD85C089E392
:1012D0000E9430120E94A1122FEF81EE94E0215063
:1012E00080409040E1F700C0000089E30E9437127F
:1012F000CF910C94A1128338A1F40E94FA0780FDCB
:101300006BC083E50E9430120E94A1122FEF81EE84
:1013100094E0215080409040E1F700C0000083E558
:10132000E5CF8438A1F40E94FA0782FD55C087E416
:101330000E9430120E94A1122FEF81EE94E0215002
:1013400080409040E1F700C0000087E4CFCF8CEFF1
:101350008C0F813A90F46C2F8091000190910101E3
:101360000E94CD13882329F08C2F0E9437120E94EF
:10137000A1128C2F0E943012BBCF80E28C0F8830DC
:1013800048F4C77081E001C0880FCA95EAF70E944F
:101390005812AECFEBE5EC0FE33040F4F0E0EB5742
:1013A000FE4F808190E0CF910C942E08E8E5EC0F81
:1013B000E73150F4F0E0EE0FFF1FE95AFE4F808155
:1013C0009181CF910C944408C03F30F08C2F0E9443
:1013D0005017CF910C943B18CF910895882309F4AE
:1013E00052C0823871F40E94FA0781FF4CC089E331
:1013F0000E9430120E94A11289E30E9437120C94BD
:10140000A112833859F40E94FA0780FF3CC083E59B
:101410000E9430120E94A11283E5EFCF843859F464
:101420000E94FA0782FF2FC087E40E9430120E94B8
:10143000A11287E4E2CF9CEF980F913AF0F290E28C
:10144000980F983050F4877091E001C0990F8A95F9
:10145000EAF7892F0E945E12D2CF9BE5980F933056
:1014600020F490E080E00C942E0898E5980F9731D6
:1014700020F490E080E00C944408803F20F00E942B
:10148000B8170C943B180895CF93C82F0E945C099D
:10149000C93349F42FEF87EE93E02150804090400C
:1014A000E1F700C000008C2FCF910C94EE09882347
:1014B00021F00E9458120C94A1120895882321F063
:1014C0000E945E120C94A1120895BF92CF92DF92F7
:1014D000EF92FF920F931F93CF93DF936C01D62F60
:1014E000C72FFC01058102950F70128111110E9416
:1014F00075120E944E12E82E882391F01123D1F02C
:101500008C2F807F803421F080E28D0F883090F026
:1015100082E00E94EC120E944E1291E0E82EE92631
:10152000BC2EB2949FE0B922EB2DF0E0E556FF4DC2
:101530000C943D20E12CF4CF0C2F0F70C07F11F0E4
:101540000295007F1123A9F0002359F080E28D0F4E
:10155000883010F0D11109C0802F0E9458120E94CB
:10156000A1128D2F0E945C0914C0802F0E94681266
:10157000F6CF8D2F0E94EE09002359F080E28D0FE7
:10158000883010F0D1112CC0802F0E945E120E9472
:10159000A1122B2D2850330B2430310520F40E944A
:1015A000FA070E948302EE2009F49EC10E944A12AB
:1015B00080FD9AC1F60112820E9444120E94D0104E
:1015C000C6010E94950C0E944412DF91CF911F9199
:1015D0000F91FF90EF90DF90CF90BF900C94F1109F
:1015E000802F0E946E12D3CFFC2FFF70FF2EC07F82
:1015F000C03219F0F29480EFF822DD2369F0D13087
:1016000049F1112391F1002351F1F601858180FF09
:10161000A8CF8F70858323C0112381F0011106C0EC
:101620000E9488128F290E94570AB3CF0130C1F758
:101630000E9488128F290E948E12ABCF011106C022
:101640000E9497128F2D0E945E0AA3CF013009F4E9
:10165000A0CFF6CF112329F0063008F09ACF8F2DB6
:10166000E2CF053008F095CFEDCF002359F3D93301
:1016700049F4FFEF27EE33E0F15020403040E1F72E
:1016800000C000008D2F0E94EE0983CF8C2F86951D
:101690008695837069F0813009F07BCF8D2F9C2F68
:1016A0009370111102C090E080E00E94440871CF55
:1016B0008D2F9C2F9370111102C090E080E00E944A
:1016C0002E0867CF8D2F112329F00E9450170E94FA
:1016D0003B185FCF0E94B817FACF8C2F837009F0A8
:1016E00041C0111156CF4D2F429546954770440F7A
:1016F000440F0D2F0F7010E030E020E0042E04C0E6
:10170000000F111F221F331F0A94D2F760E070E010
:10171000CB01D4FF0FC06FE070E080E090E004C028
:10172000660F771F881F991F4A95D2F760957095AD
:1017300080959095C695C695C370602B712B822BB2
:10174000932BC23049F058F4C13019F00E94821036
:1017500020CF0E9470101DCF0E9494101ACF0E94BB
:101760006E1017CF8695112311F08C2F817088236E
:1017700009F40FCF4D2F429546954770440F440F03
:101780000D2F0F7010E030E020E0042E04C0000F99
:10179000111F221F331F0A94D2F760E070E0CB01C3
:1017A000D4FF0FC06FE070E080E090E004C0660FEF
:1017B000771F881F991F4A95D2F76095709580957D
:1017C0009095C695C695C370602B712B822B932B79
:1017D000C23049F058F4C13019F00E944711D9CEF7
:1017E0000E943511D6CE0E945911D3CE0E94AA1064
:1017F000D0CECF70112329F08C2F0E94D0108D2FC6
:1018000012CF8D2F0E945E0A8C2F0E94F110C1CE44
:10181000D23F89F160F4D03FC9F0D13F29F11123C3
:1018200009F442C001119DCE8C2F8F7121C0D33F8E
:1018300039F1D43FA1F7112369F1CF718C2F0E94A8
:10184000D01063E08C2F0E94D712A3CE112341F059
:10185000053008F09ECE8C2F8F710E94141199CE06
:10186000063008F096CEF7CF8C2F8F71112369F2D6
:101870000E94D0108ECE8C2F8F711123C9F3C5CF4B
:10188000112329F08C2F8F710E94BB1082CE0E94F1
:10189000B6107FCE81E00E94EC12023008F479CEBF
:1018A00082E00E94EC1275CE002359F0D93309F082
:1018B000E9CE8FEF97EEE3E081509040E040E1F712
:1018C000DFCE8C2F8F71A1CF4C2F4F706D2FC601A3
:1018D0000E948B020E94E60F5CCE4C2F4F706D2F42
:1018E000C6010E948E0255CEDF91CF911F910F91BC
:1018F000FF90EF90DF90CF90BF9008950F931F93CC
:10190000CF93DF93EC01688179818A810E940C1268
:101910008C010E946B110E946D10B801CE01DF9105
:10192000CF911F910F910C94650ACF93DF93EC0137
:101930008B819C81892B29F08881998189238F3F14
:1019400059F4DF91CF910895CE010E947E0CCE0113
:10195000DF91CF910C941B02CE010E9440028111B5
:10196000F3CF0E944E12882361F38A81882349F3C2
:1019700082E0DF91CF910C94EC120E9475120E94CC
:1019800085120E94A1120E9462190E943B1890E0E9
:1019900080E00E942E0890E080E00C9444080E94B1
:1019A0003E120C94BD0C0E9465120C94CF0CE92FD2
:1019B000E295EF70E250EE3070F4F0E0E555FF4D47
:1019C0000C943D20803F19F020F4883E20F481E003
:1019D0000895843FE1F380E00895883EC0F3813F9D
:1019E000D1F7F5CF93FB882780F908950E94021262
:1019F0000C94D70CCF93DF9300D000D00F92CDB7CB
:101A0000DEB70F900F900F900F900F90DF91CF9156
:101A10000895CF93DF9300D000D000D0CDB7DEB7CC
:101A200026960FB6F894DEBF0FBECDBFDF91CF91E3
:101A300008951F93CF93DF93C091A10116E0809189
:101A4000A2018C1304C0DF91CF911F910895D0E0C3
:101A50001C9FF0011D9FF00D1124ED55FE4F40819C
:101A6000518162817381848195810E94090D219643
:101A7000C770E5CF4091D3015091D4016091D50159
:101A80007091D6018091D7019091D8010C94090DE5
:101A90001F93CF93DF938091D801807FA9F4809129
:101AA000D501882389F08091A101C091A2016091A4
:101AB000D3017091D401A091D601B091D701D62F56
:101AC000D72316E0C81304C0DF91CF911F9108956A
:101AD00090E0109711F0DF3F19F401968770F2CF74
:101AE000189F9001199F300D1124F901ED55FE4FFB
:101AF00041814713F2CF40814613EFCF428141111C
:101B0000ECCF438154814A1B5B0B483C510528F7BD
:101B10008091D8018F7080618093D801F901E855D8
:101B2000FE4F80818F708061808383ED91E00E9401
:101B3000950CDF91CF911F910C94190DAF92BF922C
:101B4000CF92DF92EF92FF920F931F93CF93DF9389
:101B5000CDB7DEB761970FB6F894DEBF0FBECDBF2D
:101B60008C0185E0F801DE011D9601900D928A95A9
:101B7000E1F7F80140815181E28083EDC82E81E0D8
:101B8000D82E6091D6017091D7016115710509F4C5
:101B900061C19091D3012091D401892F82238F3F7D
:101BA00009F458C1A380B480F090D501F501E61B7B
:101BB000F70BFF2009F4FCC08091D801382F307F4B
:101BC000E83CF10508F0B2C0311179C0FE2C2513B4
:101BD00023C0941321C0E1101FC08F7080618093D7
:101BE000D8010E943A0DC6010E94950C8091D8013F
:101BF000F80185838F2D61960FB6F894DEBF0FBE76
:101C0000CDBFDF91CF911F910F91FF90EF90DF90AB
:101C1000CF90BF90AF900895AB2829F0842F8523F3
:101C20008F3F09F033C180E0F82FF170DF2E80FF85
:101C30003CC08091A1012091A20136E0821315C021
:101C40004D875E878D859E850E940212292F2295E1
:101C50002F702230F0F0243018F59F70F1F0F80169
:101C60009581907FD1F4D12C1EC090E0389FF00177
:101C7000399FF00D1124ED55FE4F6181651306C0AB
:101C80006081641303C062816E110FC0019687707A
:101C9000D5CF9F7011F0882331F3805E883018F320
:101CA000C8010E94950CFD2CA5CFEE2009F4A2CF0F
:101CB0008091D80181608093D801F12C9BCF2513AE
:101CC00006C0941304C0F801EE2009F48DC04D87BE
:101CD0005E878D859E850E94F60C882319F1EE2083
:101CE00009F18091D801803270F02091D3013091B8
:101CF000D40138872F831986BB86AA868C87CE01AC
:101D000007960E94950C86E0F801A3EDB1E00190E2
:101D10000D928A95E1F70E94480D0E943A0DFF242A
:101D2000F39468CFC8010E94950CF9CF311113C00C
:101D30007A2DB98AA88A6E2D89890E94FA0C83EDC2
:101D400091E00E94950C86E0F60111928A95E9F7E0
:101D50000E943A0DB2CF25130FC094130DC0E110AD
:101D60000BC0F8018583C8010E94950C86E0F6013E
:101D700011928A95E9F73ECF4D875E878D859E85C6
:101D80000E94F60C882371F2EE2061F28091D80156
:101D9000803208F4B8CF2091D3013091D4013A8336
:101DA00029831B82BD82AC828E83CE010196A9CF8E
:101DB000E83CF10508F041C0FE2CEE2009F4B2CF5A
:101DC00025132AC0941328C08091D80180FD1BC020
:101DD000982F907FC1F0F8018583903F31F0982FC4
:101DE000907F905F8F70892B8583C8010E94950C2E
:101DF00086E0F801A3EDB1E001900D928A95E1F73C
:101E00000E943A0DF7CE86E0F801A3EDB1E0019013
:101E10000D928A95E1F7EECE4D875E878D859E8582
:101E20000E94F60C81116FCF8091D8018160809360
:101E3000D801C8010E94950CDDCE7A2DB98AA88AF6
:101E40006E2D89890E94FA0C86E0F60111928A951E
:101E5000E9F7D6CFEE2009F465CF4D875E878D85F3
:101E60009E850E94F60CF82E882309F45BCF86E04D
:101E7000F801A3EDB1E001900D928A95E1F783EDB1
:101E800091E00E9457090E94480DBACF81E08E254B
:101E9000CBCE88EC90E008951F93CF93DF93CDB71E
:101EA000DEB72C970FB6F894DEBF0FBECDBF4F83C1
:101EB000588769877A878B879C87CE0107960E940F
:101EC0009E0D882369F08A859B85892B39F04F8187
:101ED0005885842F85238F3F09F071C016E05FC0BD
:101EE00086E0FE013796DE01119601900D928A95EB
:101EF000E1F78A859B85892B89F38F8198858923D2
:101F00008F3F61F32091A20130E0C90101968770F3
:101F100099274091A1014817190671F40E94D30C2A
:101F20001092A2011092A10186E0E3EDF1E0DF0141
:101F30001D928A95E9F7D2CF96E0929FD001939FA8
:101F4000B00D1124AD55BE4FFE01319601900D929A
:101F50009A95E1F78093A2010E94190DBFCF819F4E
:101F6000C00111248D559E4F0E949E0D8823E9F0DB
:101F7000E091A1011E9FF0011124ED55FE4F40811B
:101F8000518162817381848195810E94090D8091C4
:101F9000A10190E00196877099278093A10180911B
:101FA000A1019091A2018913DACF2C960FB6F89473
:101FB000DEBF0FBECDBFDF91CF911F910895698520
:101FC0007A858B859C850E94090D88CFEF92FF92C0
:101FD0000F931F93CF93DF938C01892B81F0F12C0A
:101FE000EE24E394E8012196F8018491843770F49B
:101FF000843008F05FC08130B1F08230A1F1DF9110
:10200000CF911F910F91FF90EF900895853709F4BC
:102010004CC008F43DC09CE7980F903780F78F774D
:102020000E94EE0949C00E5F1F4FFE01849190E2AD
:10203000980F983060F48770FE2D01C0FF0F8A95CD
:10204000EAF78F2F0E9478120E94A11202C00E940C
:102050005C098F2D815030F2EFE9FFE03197F1F705
:1020600000C00000F7CF0E5F1F4FFE01849190E289
:10207000980F983050F48770FE2D01C0FF0F8A959D
:10208000EAF78F2F0E947E12DFCF0E94EE09E1CF88
:102090000E5F1F4FFE01C491C150D8F28FE99FE03F
:1020A0000197F1F700C00000F7CF0E5F1F4FFE0150
:1020B000F490CFCF0E945C098E01CBCF08950C9491
:1020C0005E100E945F106093050270930602809379
:1020D0000702909308020C94BD0C08950C946110B3
:1020E0000F931F93009105021091060220910702A1
:1020F00030910802602B712B822B932B1F910F9133
:102100000C9461100F931F93009105021091060229
:1021100020910702309108026023712382239323C8
:102120001F910F910C9461100F931F930091050262
:102130001091060220910702309108026027712752
:10214000822793271F910F910C9461100C945E10BD
:102150000C94A6100E94A8106093010270930202D2
:1021600080930302909304020C94BD0C60E070E035
:10217000CB010C94AA100F931F9341E050E060E054
:1021800070E08A019B0104C0000F111F221F331F42
:102190008A95D2F7C901B8011F910F910C94AA102A
:1021A0000F931F9341E050E060E070E004C0440FE3
:1021B000551F661F771F8A95D2F780910102909173
:1021C0000202A0910302B09104028A019B01082B34
:1021D000192B2A2B3B2BC901B8011F910F910C948D
:1021E000AA100F931F9341E050E060E070E004C03C
:1021F000440F551F661F771F8A95D2F7CB01BA018E
:102200006095709580959095009101021091020261
:1022100020910302309104026023712382239323CF
:102220001F910F910C94AA100F931F9341E050E05F
:1022300060E070E004C0440F551F661F771F8A9549
:10224000D2F78091010290910202A0910302B09115
:1022500004028A019B01082719272A273B27C90165
:10226000B8011F910F910C94AA100F931F93009126
:102270000102109102022091030230910402602BAE
:10228000712B822B932B1F910F910C94AA100F93FB
:102290001F930091010210910202209103023091DC
:1022A000040260237123822393231F910F910C94C6
:1022B000AA100F931F930091010210910202209126
:1022C00003023091040260277127822793271F9110
:1022D0000F910C94AA1008952CE0929F800D112468
:1022E000982F977041E001C0440F9A95EAF78695C0
:1022F0008695869595E0899FF0011124E752FE4F5F
:1023000090E080E070E05191DF0111979B01082E71
:1023100002C0369527950A94E2F72170219525276A
:10232000242325272C9301968530910561F7089584
:102330002CE0929F800D1124982F9770869586959A
:10234000869525E0829FF0011124E752FE4F50E070
:1023500040E080E0219130E0092E02C036952795BB
:102360000A94E2F721703327042E01C0220F0A9449
:10237000EAF7822B4F5F5F4F4530510559F70895BB
:10238000BF92CF92DF92EF92FF920F931F93CF9362
:10239000DF938C01C0900102D0900202E090030212
:1023A000F09004028091050290910602A09107022C
:1023B000B0910802C82AD92AEA2AFB2ACFE1D0E044
:1023C000BC2ED701C6010C2E04C0B695A7959795D3
:1023D00087950A94D2F780FD0EC0219788F7B12C1B
:1023E0008B2DDF91CF911F910F91FF90EF90DF9098
:1023F000CF90BF900895B8018C2F0E94AB02019737
:1024000061F3EECFCF93DF93EC010E94C011BE01C8
:10241000DF91CF910C94AB021F93CF93DF93EB012D
:102420009091A001992331F0CB01DF91CF911F91C1
:102430000C940212882379F0CB010E94C011182F4E
:10244000682FCE010E946C11BE01812FDF91CF91C8
:102450001F910C94AB02CB010E949811182FF4CF5E
:10246000682F80910001909101010C944D14682F08
:1024700080910001909101010C9458148091000109
:10248000909101010C9463148091090285958595C2
:1024900085950895809109028770089590910902A9
:1024A000977081E009F480E0089580912D020895ED
:1024B00090912D02892B80932D0208958095909103
:1024C0002D02982390932D02089510922D020895C5
:1024D00090912C02892B80932C02089580959091E5
:1024E0002C02982390932C02089510922C020895A8
:1024F00090912B02892B80932B02089580959091C7
:102500002B02982390932B02089510922B0208958A
:1025100080910A02089508950C948B1290910A02FA
:10252000981721F080930A020C948C1208958091E0
:102530000A02882329F010920A0280E00C948C127F
:102540000895E0910001F091010180912D028083B6
:10255000E0910001F0910101808190912C02892B82
:102560008083E0910001F0910101808190912B0224
:10257000892B808390910A02992381F0E0910001D8
:10258000F09101018081892B8083809100019091DD
:1025900001010E94B91381110E94971280910001DC
:1025A000909101010C94060808950C94D41298E0BF
:1025B000899F90011124622B609309020E94D01020
:1025C000809109028595859585950C94D512109278
:1025D000090280E00C94D51290910902809589231C
:1025E00080930902282F277071F4282F082E000CE1
:1025F000330B9217130639F08595859585950E94C2
:10260000F1100C94E712089590E080E00E945F20A2
:1026100021E08C3E9E4F09F020E0822F089582E059
:1026200090E00C945720682F82E090E00C94652095
:1026300083E090E00C945720682F83E090E00C94A6
:102640006520CF9384E090E00E945720C82F81E25C
:1026500090E00E945720982F8C2FCF910895CF9310
:10266000C92F682F84E090E00E9465206C2F81E2E2
:1026700090E0CF910C946520AB01BC018FE090E01D
:102680000C947720AB01BC0183E190E00C9477209F
:1026900060E070E0CB010C94421360E070E0CB018D
:1026A0000E943C130C9448136CEE7EEF90E080E0A7
:1026B0000E94832060E082E090E00E94652060E05C
:1026C00083E090E00E9465201092050210920602BD
:1026D000109207021092080260E084E090E00E94ED
:1026E000652060E081E290E00E94652060E085E086
:1026F00090E00E94652060E086E090E00E94652006
:102700006FEF87E090E00E94652040E050E0BA0162
:1027100088E090E00E94772060E08DE090E00E94E9
:10272000652040E050E0BA0188E190E00E94772007
:1027300060E087E190E00E94652040E050E0BA014F
:102740008CE190E00E94772060E080E290E00E94BF
:10275000652040E050E0BA0188E190E00E947720D7
:102760000C944D130C945413682F8EE090E00C944D
:102770006520FC01329680911401882321F080911C
:1027800077029EE187FF96E080E0915008F408957B
:1027900021912223D1F38F5FF8CF662301F120919D
:1027A00014012223F1F02091770227FF1AC0462F4F
:1027B0004695469546954E3190F4677021E030E09D
:1027C00002C0220F331F6A95E2F7840F911DFC01AE
:1027D000828190E02823392381E0232B69F480E073
:1027E0000895FC01329608962191261721F0E817EA
:1027F000F907D1F7F4CF81E008959C01FC013296EE
:102800009FEF80E04191461751F09F3F19F441112D
:1028100001C0982F8F5F8630A9F79F3F09F4089574
:10282000290F311D97FD3A95F90162830895FC0146
:10283000329608962191261303C0DF0111971C924E
:10284000E817F907B9F70895E62FE695E695E695B6
:10285000EE3168F4E80FF92FF11D677021E030E0E8
:1028600001C0220F6A95EAF78281822B8283089544
:10287000E62FE695E695E695EE3170F4E80FF92F30
:10288000F11D677021E030E001C0220F6A95EAF780
:1028900020958281282322830895209114012223E8
:1028A00029F02091770227FD0C9424140C94FD1339
:1028B00020911401222329F02091770227FD0C9406
:1028C00038140C941714FC0132968091140188235B
:1028D00051F08091770287FF06C08EE1DF011D92E3
:1028E0008A95E9F7089586E0F9CF089508950C9444
:1028F00076140E94771480917D02843049F1109201
:102900002F0288E190E020E40FB6F894A895809318
:1029100060000FBE2093600080E00E9483020E944E
:10292000771483B7817F846083BF83B7816083BF5F
:102930007894889583B78E7F83BF0FB6F894A89557
:1029400080916000886180936000109260000FBEEB
:1029500008950895CF930E9475140E9413050E9454
:10296000A914C0E08C2F0E94A004892B31F4CF5F02
:10297000C530C1F780E0CF91089581E0FCCF089584
:102980000C94BF140E94D30C0E94FA070E94830289
:102990000C94C0141F921FB61F9211248F939F9303
:1029A000AF93BF9380912F02811113C08091730266
:1029B00090917402A0917502B09176024196A11D8A
:1029C000B11D8093730290937402A0937502B0932B
:1029D0007602BF91AF919F918F911F901FBE1F9064
:1029E000189582E084BD93E095BD9AEF97BD8093E2
:1029F0006E0008952FB7F89480917302909174023D
:102A0000A0917502B09176022FBF08959C014FB737
:102A1000F8948091730290917402A0917502B09124
:102A200076024FBF821B930B089578941F921FB6B6
:102A30001F9211248F939F93AF93BF938091730242
:102A400090917402A0917502B09176020196A11D39
:102A5000B11D8093730290937402A0937502B0939A
:102A60007602BF91AF919F918F911F901FBE1F90D3
:102A7000189581E08093E00080E28093D800109266
:102A8000C9008FE19EE40197F1F700C0000087E0E4
:102A900090EBDC018093860290938702A0938802DA
:102AA000B093890288E19CE00FB6F894A8958093D2
:102AB00060000FBE90936000FFCFAF92BF92CF92A5
:102AC000DF92EF92FF920F931F93CF93C0E0CC243D
:102AD000C394D12CE82EF12C8C2F0E94A0045C0111
:102AE00010E000E0C601002E02C0880F991F0A9472
:102AF000E2F78A219B21892B99F40F5F1F4F0C303D
:102B0000110581F7CF5FC53039F780E0CF911F9174
:102B10000F91FF90EF90DF90CF90BF90AF9008950E
:102B2000602F7C2F80E00E948F02E816F90629F7BB
:102B300081E0ECCFCF93C82F8CE20E945D158823F3
:102B400021F08C2FCF910C945D1580E0CF910895EA
:102B5000CF930E940413811102C00E94B213C5E6F4
:102B600008C00E9413058FE39CE90197F1F700C0AC
:102B70000000C150B1F789E20E949A1581110BC182
:102B80008AE20E949A1581110E94B21385E00E9488
:102B90009A1581110E9439150E940F1380932E02FD
:102BA00087E00E949A15882371F08BE10E949A15A4
:102BB000882309F4CDC090912E02892F8D7F91FF3B
:102BC000826080932E0280912E020E9413130E9435
:102BD0002113909378028093770280EE0E949A15D9
:102BE000882341F090917702892F8E7F90FF81603A
:102BF0008093770289E30E949A15882341F090918F
:102C00007702892F8D7F91FF82608093770282EE19
:102C10000E949A15882341F090917702892F8B7F2B
:102C200092FF84608093770286EE0E949A15882333
:102C300041F090917702892F877F93FF886080937E
:102C4000770283EE0E949A15882341F090917702D3
:102C5000892F8F7E94FF80618093770285E30E94A5
:102C60009A15882341F090917702892F8F7D95FFE7
:102C700080628093770281E30E949A15882341F055
:102C800090917702892F8F7B96FF806480937702E3
:102C900081E10E949A15882341F090917702892F53
:102CA00097FB87F980588093770280917702909103
:102CB00078020E942F1387E20E949A15C82F8EE196
:102CC0000E949A158111C2608FE10E949A158111AC
:102CD000C46080E20E949A158111C86081E20E945E
:102CE0009A158111C06182E20E949A158111C06219
:102CF00083E20E949A158111C06484E20E949A15B1
:102D0000882309F442C0C0688C2F0E941C136C2FCA
:102D100070E090E080E00E946E106091010270917E
:102D2000020280910302909104020E94A8108FE099
:102D30000E949A15882319F081E00E94B41385E15E
:102D40000E949A15882339F180E0CF910C94B41336
:102D50008EE00E949A15882339F090912E02892FD7
:102D60008B7F92FF84602DCF80E10E949A15909115
:102D70002E02882329F0892F877F93FF886021CF37
:102D8000892F8E7F90FF81601CCFC111BDCF0E9423
:102D90001813682FBDCFCF9108958091360280FF20
:102DA00012C06091070185E0689FB00111247595FC
:102DB00067957595679560387105A8F5611571057A
:102DC000A1F1862F089581FF09C06091070185E078
:102DD000689FB001112475956795EDCF609107014B
:102DE00082FD0AC0809135028823D1F090910601BE
:102DF00060910701891728F085E0689FB0011124D0
:102E0000DACF869FB001112485E0869F9001879FCD
:102E1000300D1124692F70E0C9010E942920CBCF09
:102E200065E070E0CECF8FE7089581E0089580914E
:102E3000360280FF0CC06091030170E075956795C4
:102E4000759567956115710549F1862F089581FF84
:102E500006C06091030170E075956795F3CF6091AE
:102E6000030182FD0BC0909134029923A1F060917F
:102E7000020180910301961738F0682F70E06038E6
:102E8000710500F38FE70895899FC001112470E058
:102E90000E942920F4CF61E070E0D7CF81E008954F
:102EA000803F31F40E94CD16819580933A020895B7
:102EB000813F19F40E94CD16F8CF823F31F40E9471
:102EC000CD168195809339020895833F19F40E94AD
:102ED000CD16F8CF893F29F40E94171780933B0243
:102EE00008958A3F21F40E9417178195F7CF8B3FF1
:102EF00031F40E941717819580933C0208958C3F0E
:102F000019F40E941717F8CF843F31F480913802EA
:102F10008160809338020895853F21F480913802C2
:102F20008260F7CF863F21F4809138028460F1CF30
:102F3000873F21F4809138028860EBCF883F21F4ED
:102F4000809138028061E5CF8D3F31F48091360267
:102F500081608093360208958E3F21F4809136027D
:102F60008260F7CF8F3FB9F7809136028460F1CF4E
:102F700090913902803F59F480913A0287FF0DC049
:102F800010923A0291110BC01092350208C0813F95
:102F900081F480913A0218169CF3992381F0809174
:102FA0003B0290913C02892B09F064C010923402DC
:102FB0000895823F49F497FFF0CF10923902809133
:102FC0003A028111ECCFE0CF833F19F41916ACF32C
:102FD000E4CF20913B02893F29F41216F4F61092B7
:102FE0003B02DBCF8A3F19F427FFD7CFF8CF2091E0
:102FF0003C028B3F29F427FFD0CF10923C02CDCF6B
:103000008C3F19F41216CCF3C8CF843F31F4809171
:1030100038028E7F80933802C0CF853F21F48091A3
:1030200038028D7FF7CF863F21F4809138028B7F65
:10303000F1CF873F21F480913802877FEBCF883F23
:1030400021F4809138028F7EE5CF8D3F31F480915D
:1030500036028E7F80933602A0CF8E3F21F480917E
:1030600036028D7FF7CF8F3F09F097CF80913602E0
:103070008B7FF0CF08950E94FA149C019091390241
:1030800080913A02982B21F0309333022093320240
:1030900090913B0280913C02982B21F030933102B9
:1030A0002093300287E392E00C942008EF92FF9285
:1030B0000F931F93CF93DF9300D000D000D0CDB7F4
:1030C000DEB786E0E7E3F2E0DE01119601900D92B3
:1030D0008A95E1F7E0903902F0903A0200913B02C4
:1030E00010913C021092390210923A0210923B0267
:1030F00010923C028E2D8F2991F080913202909196
:1031000033020E940615AC0190913502992309F40F
:103110003FC0809108018417150608F447C0802F2E
:10312000812B91F080913002909131020E9406151E
:10313000AC0190913402992309F477C08091040185
:103140008417150608F47FC08091390290913A02E5
:10315000892B90913B02892B90913C02892B11F095
:103160000E943B1886E0FE013196A7E3B2E0019091
:103170000D928A95E1F726960FB6F894DEBF0FBE42
:10318000CDBFDF91CF911F910F91FF90EF900895E8
:10319000209109018AE0289F900111242417350706
:1031A00008F0BDCF9F5F9093350202C09F3FD1F7DB
:1031B000EE2059F00E94CD169FEF1E140CF491E002
:1031C000899F802D112480933902FF2059F00E949D
:1031D000CD169FEF1F140CF491E0899F802D1124D0
:1031E00080933A0230913902332309F498CF209129
:1031F0003A02222309F493CF45EB3403C001112492
:10320000992359F09093390245EB2403900111243E
:10321000332339F030933A0282CF81E08093390230
:10322000F3CF81E080933A027ACF209105018AE0C2
:10323000289F900111242417350708F085CF9F5F40
:103240009093340202C09F3FD1F7002359F00E94AF
:1032500017179FEF10160CF491E0899F802D112411
:1032600080933B02112359F00E9417179FEF11160C
:103270000CF491E0899F802D112480933C023091C1
:103280003B02332309F460CF20913C02222309F44E
:103290005BCF45EB3403C0011124992359F090937F
:1032A0003B0245EB240390011124332339F0309382
:1032B0003C024ACF81E080933B02F3CF81E08093D0
:1032C0003C0242CF86E0E7E3F2E0DF011D928A95FF
:1032D000E9F71092350210923402109236020895E6
:1032E00080915D020895CF93DF9300D00F92CDB708
:1032F000DEB790917D02943019F589837B836A83D0
:1033000082E08093E9008FEF9091E800815095FD75
:1033100006C095ED9A95F1F700008111F5CF8091E7
:10332000E80085FF0DC050E040E063E070E0CE01B2
:1033300001960E94981B8091E8008E778093E800A8
:103340000F900F900F90DF91CF910895BC0184E012
:103350000C947319BC0183E00C9473199C0182E0F6
:103360008093E9009FEF8091E800915085FD06C0B1
:1033700085ED8A95F1F700009111F5CF8091E80075
:1033800085FF0CC050E040E066E070E0C9010E949B
:10339000981B8091E8008E778093E8000895CF9382
:1033A000DF93EC01809114018823B1F180917702C1
:1033B00087FF32C060E282E08093E9008FEF909156
:1033C000E800815095FD06C095ED9A95F1F7000053
:1033D0008111F5CF8091E80085FF1BC08091140119
:1033E00070E050E040E0811104C050E040E068E04F
:1033F00070E0CE010E94981B8091E8008E77809348
:10340000E80080E2FE01ADE3B2E001900D928A9502
:10341000E1F7DF91CF91089568E081E0CDCF809111
:103420007C02811109C00E94281D0E94851D809187
:10343000E20084608093E200089510927C02089577
:10344000089508950C94C21442E061EC81E00E945A
:10345000A41C42E261EC82E00C94A41C80917F02E7
:10346000833009F45FC030F48130C1F1823009F457
:103470009BC008958A3009F487C08B3009F46DC071
:10348000893009F04EC080917E02813209F049C036
:103490008091820290918302029708F042C080914D
:1034A000E800877F8093E8008091E80082FF35C0C4
:1034B0009091F3008091F200029729F48091F1003D
:1034C0008B7F813021F48091F10080935D028091A7
:1034D000E8008B778093E8000C94D81C80917E02E2
:1034E000813AF9F48091E800877F8093E800809129
:1034F000820290918302892B61F460E28DE392E075
:1035000070E00E94E71B8091E8008B778093E800D1
:10351000089560E090E080E0F3CF80917D0281111A
:10352000C3CF089580917E02813AD9F780918202BB
:1035300090918302892BA9F78091E800877F80937F
:10354000E8008091E80080FFFCCF80911401809317
:10355000F1008091E8008E77BDCF80917E028132AC
:1035600001F78091820290918302892BD1F680919C
:10357000E800877F8093E8000E94D81C8091800239
:10358000809314010C94D30C80917E02813249F611
:103590008091E800877F8093E8000E94D81C80918A
:1035A000810280935E02089580917E02813A09F043
:1035B000B8CF8091E800877F8093E8008091E80091
:1035C00080FFFCCF80915E02C2CF84B7877F84BF2B
:1035D0000FB6F894A8958091600088618093600090
:1035E000109260000FBE80E890E00FB6F8948093D0
:1035F0006100909361000FBE0E9468080E94281D20
:103600000E94851D8091E20084608093E20078949E
:103610000E940E200E9474088AE091E00E94F50743
:1036200080917D02853039F00E947C080E947208EA
:103630000E947308F5CF0E94791480917B02882341
:1036400079F30E94AA14882359F30E94821BE8CFC1
:103650000C942A1B292F33272330310519F168F4E4
:103660002130310509F444C02230310509F445C048
:1036700090E080E030E020E025C02132310549F1C2
:1036800022323105A9F780E490E029ED32E061159E
:103690007105C1F08CEB90E02DE132E061307105F5
:1036A00089F0E6CF99278130910581F0009729F0C4
:1036B0000297F1F6ECE9F1E002C0ECECF1E0849164
:1036C00090E09F01FA01318320830895ECEAF1E054
:1036D000F6CF89E090E022EE31E06115710591F3BB
:1036E00089E090E02BEF31E06130710559F3C0CFF4
:1036F00082E190E02BE032E0E5CF8BE390E020ED3B
:1037000031E0E0CF80E189BD82E189BD09B400FEEE
:10371000FDCF8091D8008F7D8093D8008091E0000C
:1037200082608093E0008091E00081FDFCCF0895ED
:10373000AF92BF92CF92DF92FF920F931F93CF93DE
:10374000DF936C01EB018A010E94F71CF82E8111B6
:1037500023C00115110539F0F80180819181C81B42
:10376000D90BC80ED91EB12CA12C2097A9F080919D
:10377000E80085FD22C08091E8008E778093E80004
:1037800001151105A1F0F80180819181A80EB91EE3
:10379000B182A08285E0F82E8F2DDF91CF911F910D
:1037A0000F91FF90DF90CF90BF90AF9008950E944F
:1037B000F71C8823D1F2F82EEFCFF60181916F012B
:1037C0008093F1002197FFEFAF1ABF0ACECFFC0123
:1037D000809184029091850286179707A0F0611569
:1037E000710529F49091E8009E779093E80090E0AD
:1037F0006115710551F4911108C08091E80082FFB4
:1038000034C080E00895BC01F2CF80917D0288230E
:10381000C1F18530C1F18091E80083FD30C0809115
:10382000E80082FDEACF8091E80080FFE1CF80913F
:10383000F3002091F200382F6115710519F028303E
:10384000310558F091E02830310509F090E02091E1
:10385000E8002E772093E800CBCF81918093F10090
:10386000615071092F5F3F4FE7CF80917D02882320
:1038700041F0853041F08091E80083FFBECF81E0C8
:10388000089582E0089583E00895FC018091840208
:103890009091850286179707A0F06115710529F4AC
:1038A0008091E8008E778093E80090E061157105C3
:1038B00051F4911108C08091E80082FF35C080E08A
:1038C0000895BC01F2CF80917D028823C9F1853033
:1038D000C9F18091E80083FD31C08091E80082FD4C
:1038E000EACF8091E80080FFE1CF8091F300209142
:1038F000F200382F6115710519F02830310558F0A4
:1039000091E02830310509F090E08091E8008E7751
:103910008093E800CBCF84918093F1003196615081
:1039200071092F5F3F4FE6CF80917D02882341F0E0
:10393000853041F08091E80083FFBDCF81E008959C
:1039400082E0089583E00895982F973028F08F70D3
:103950008093E90081E008959093E900242F762F69
:1039600050E0981731F07091EC002091ED005091EB
:10397000F00021FD02C09F5FE8CF3091EB003E7F59
:103980003093EB003091ED003D7F3093ED003091AE
:10399000EB0031603093EB007093EC002093ED006E
:1039A0005093F0002091EE0027FDE5CF80E00895D0
:1039B00080917E0287FF13C08091E80082FF06C0DD
:1039C0008091E8008B778093E80004C080917D02AD
:1039D0008111F2CF089580917D028823D9F38091DF
:1039E000E80080FFF8CF8091E8008E77ECCF20913F
:1039F000E4003091E50095E6A9012091EC00822FCA
:103A0000817020FF06C08091E80080FF06C080E042
:103A100008952091E80022FD1AC080917D0288233C
:103A200089F0853089F08091EB0085FD0FC02091F1
:103A3000E4003091E50042175307F9F29150E1F6A6
:103A400084E0089582E0089583E0089581E0089578
:103A50000E94961D0E949E1DE0EEF0E08081816034
:103A60008083E8EDF0E080818F77808319BCA7ED3B
:103A7000B0E08C918E7F8C9380818F7E80831092BA
:103A80007C0208950F931F93CF93DF930E94961D9E
:103A90000E949E1DC8EDD0E088818F778883888141
:103AA0008068888388818F7D888319BC10927D020D
:103AB0001092790210927B0210927A0200EE10E0CE
:103AC000F80180818B7F808388818160888342E0D8
:103AD00060E080E00E94A41CE1EEF0E080818E7F37
:103AE0008083E2EEF0E08081816080838081886065
:103AF0008083F80180818E7F8083888180618883C4
:103B0000DF91CF911F910F910895E8EDF0E0808152
:103B10008F7E8083E7EDF0E080818160808384E0A8
:103B200082BF81E080937C020C94421DE8EDF0E0BE
:103B300080818E7F80831092E20008951092DA00D7
:103B40001092E10008951F920F920FB60F92112468
:103B50002F933F934F935F936F937F938F939F9395
:103B6000AF93BF93EF93FF938091E10082FF0BC06F
:103B70008091E20082FF07C08091E1008B7F8093FB
:103B8000E1000E940D208091DA0080FF19C0809131
:103B9000D80080FF15C08091DA008E7F8093DA0014
:103BA0008091D90080FF96C080E189BD82E189BD06
:103BB00009B400FEFDCF81E080937D020E940F1AC0
:103BC0008091E10080FF19C08091E20080FF15C064
:103BD0008091E2008E7F8093E2008091E20080611C
:103BE0008093E2008091D80080628093D80019BC55
:103BF00085E080937D020E94211A8091E10084FF7C
:103C00002BC08091E20084FF27C080E189BD82E162
:103C100089BD89B5982F917080FFFBCF8091D80026
:103C20008F7D8093D8008091E1008F7E8093E100AA
:103C30008091E2008F7E8093E2008091E2008160BB
:103C40008093E20080917902882309F449C084E0DE
:103C500080937D020E94221A8091E10083FF29C097
:103C60008091E20083FF25C08091E100877F8093EF
:103C7000E10082E080937D02109279028091E10060
:103C80008E7F8093E1008091E2008E7F8093E2003E
:103C90008091E20080618093E20042E060E080E099
:103CA0000E94A41C8091F00088608093F0000E9424
:103CB000201AFF91EF91BF91AF919F918F917F91CA
:103CC0006F915F914F913F912F910F900FBE0F9089
:103CD0001F90189519BC10927D020E941D1A70CF7A
:103CE0008091E30087FD93E090937D02B3CF1F9214
:103CF0000F920FB60F9211242F933F934F935F9320
:103D00006F937F938F939F93AF93BF93CF93DF93E3
:103D1000EF93FF93D091E900DF708091EC00C82F02
:103D2000C17080FDC0E81092E9008091F000877FAB
:103D30008093F00078940E94BB1E1092E90080915D
:103D4000F00088608093F000CD2BCF70C093E90025
:103D5000FF91EF91DF91CF91BF91AF919F918F91A3
:103D60007F916F915F914F913F912F910F900FBE77
:103D70000F901F9018951F93CF93DF93CDB7DEB7A9
:103D8000AA970FB6F894DEBF0FBECDBF8EE792E0C4
:103D90002091F100FC012193CF01F2E086389F07CA
:103DA000B9F70E942E1A8091E80083FF1EC180910E
:103DB0007E0290917F029A3008F017C1E92FF0E05F
:103DC000E754FF4D0C943D20803899F0823809F07B
:103DD0000CC1809182028F70873008F006C18093F9
:103DE000E9008091EB0085FB882780F91092E900BB
:103DF00006C080917A0290917B029111826090912D
:103E0000E800977F9093E8008093F1001092F10012
:103E10008091E8008E77E5C0882309F4D3C0823012
:103E200009F0E3C0809180028111D6C080918202A6
:103E30008F702FEF280F263008F0D7C08093E9004D
:103E40002091EB0020FFC8C0933031F48091EB004B
:103E500080628093EB00C0C09091EB0090619093E2
:103E6000EB0021E030E001C0220F8A95EAF72093B1
:103E7000EA001092EA008091EB008860EACF81119D
:103E8000B4C0109180021F778091E3008078812B6D
:103E90008093E3008091E800877F8093E8000E9490
:103EA000D81C8091E80080FFFCCF8091E3008068FF
:103EB0008093E30082E0111183E080937D0295C03E
:103EC0008058823008F091C08091800290918102E8
:103ED0008C3D23E09207A1F583E08A838AE28983FF
:103EE0004FB7F894DE01139620E03EE051E2E32F55
:103EF000F0E050935700E49120FF03C0E295EF708B
:103F00003F5FEF708E2F90E0EA30C0F0C7968D9340
:103F10009D932F5F243159F74FBF8091E800877F31
:103F20008093E8006AE270E0CE0101960E94E71BF0
:103F30008091E8008B778093E80057C0C096E7CF68
:103F40006091820270918302AE014F5F5F4F0E94C9
:103F5000281BBC01892B09F448C09091E800977F89
:103F60009093E80089819A810E94451CE1CF8038B6
:103F7000E1F58091E800877F8093E80080917902E5
:103F80008093F10045CF811130C090918002923032
:103F900060F58091E800877F8093E8009093790234
:103FA0000E94D81C80917902882311F084E005C01A
:103FB0008091E30087FDFACF81E080937D020E942B
:103FC000241A13C080918002813079F481E093300B
:103FD00009F080E080937B021092E9008091E80074
:103FE000877F8093E8000E94D81C8091E80083FFBF
:103FF0000AC08091E800877F8093E8008091EB0001
:1040000080628093EB00AA960FB6F894DEBF0FBED5
:10401000CDBFDF91CF911F9108950895CF938091E7
:104020007D028823A1F0C091E900CF709091EC004F
:10403000892F817090FD80E8C82B1092E900809153
:10404000E80083FD0E94BB1ECF70C093E900CF91B2
:10405000089597FB072E16F4009407D077FD09D03A
:104060000E94432007FC05D03EF4909581959F4F18
:104070000895709561957F4F0895EE0FFF1F05908D
:10408000F491E02D0994AA1BBB1B51E107C0AA1FA4
:10409000BB1FA617B70710F0A61BB70B881F991FE9
:1040A0005A95A9F780959095BC01CD010895F9998D
:1040B000FECF92BD81BDF89A992780B50895A8E1F9
:1040C000B0E042E050E00C948B20262FF999FECF0F
:1040D00092BD81BDF89A019700B4021639F01FBA5B
:1040E00020BD0FB6F894FA9AF99A0FBE0895039678
:1040F000272F0E9466200E946520252F0E9466209F
:10410000242F0C9466200196272F0E9466200C9481
:104110006520DC01CB01FC01F999FECF06C0F2BDA0
:10412000E1BDF89A319600B40D9241505040B8F775
:104130000895F894FFCF9C0A9C0AF40AF40A460BEF
:10414000620BC90AC90A6D0BF90B080C080C640C48
:10415000C90AC90A6D0CE20CE20CEB0CEB0CED0C7D
:10416000EB0CEB0CEB0CE20CE20CF20CEB0CEB0CA2
:10417000F20CE41E0C1FF51F0C1FF51F3F1F601FE4
:06418000F51FB71FC31F6D
:104186000B022808641E140A321E7019CF19AE19C4
:10419600AA19A61901E200E900EA00B500B600B7BF
:1041A60000CD008301CC008A0192019401210223F3
:1041B6000224022502260227022A02B300B4006F57
:1041C600007000818283923534C6976694903632A9
:1041D60033919331F7F600E200E900EA00B500B644
:1041E60000B700CD008301CC008A01920194012121
:1041F60002230224022502260227022A02B300B461
:08420600006F0070008182834B
:00000001FF
